{
  "contractName": "PermissionManager",
  "abi": [
    {
      "constant": false,
      "inputs": [
        {
          "name": "userAddress",
          "type": "address"
        }
      ],
      "name": "grantPermissionTo",
      "outputs": [
        {
          "name": "",
          "type": "bool"
        }
      ],
      "payable": false,
      "stateMutability": "nonpayable",
      "type": "function",
      "signature": "0x7ba3f08d"
    },
    {
      "constant": false,
      "inputs": [
        {
          "name": "userAddress",
          "type": "address"
        }
      ],
      "name": "revokePermission",
      "outputs": [
        {
          "name": "",
          "type": "bool"
        }
      ],
      "payable": false,
      "stateMutability": "nonpayable",
      "type": "function",
      "signature": "0xa3bf5b9a"
    },
    {
      "constant": true,
      "inputs": [],
      "name": "hasPermissionFromOtherUser",
      "outputs": [
        {
          "name": "",
          "type": "bool"
        }
      ],
      "payable": false,
      "stateMutability": "view",
      "type": "function",
      "signature": "0x463f915c"
    },
    {
      "constant": true,
      "inputs": [],
      "name": "getPermissionsCountAssigenedByUsers",
      "outputs": [
        {
          "name": "",
          "type": "int256"
        }
      ],
      "payable": false,
      "stateMutability": "view",
      "type": "function",
      "signature": "0x1f3a4b64"
    }
  ],
  "bytecode": "0x608060405234801561001057600080fd5b506104f7806100206000396000f300608060405260043610610062576000357c0100000000000000000000000000000000000000000000000000000000900463ffffffff1680631f3a4b6414610067578063463f915c146100925780637ba3f08d146100c1578063a3bf5b9a1461011c575b600080fd5b34801561007357600080fd5b5061007c610177565b6040518082815260200191505060405180910390f35b34801561009e57600080fd5b506100a76101be565b604051808215151515815260200191505060405180910390f35b3480156100cd57600080fd5b50610102600480360381019080803573ffffffffffffffffffffffffffffffffffffffff169060200190929190505050610207565b604051808215151515815260200191505060405180910390f35b34801561012857600080fd5b5061015d600480360381019080803573ffffffffffffffffffffffffffffffffffffffff169060200190929190505050610369565b604051808215151515815260200191505060405180910390f35b6000600160003373ffffffffffffffffffffffffffffffffffffffff1673ffffffffffffffffffffffffffffffffffffffff16815260200190815260200160002054905090565b600080600160003373ffffffffffffffffffffffffffffffffffffffff1673ffffffffffffffffffffffffffffffffffffffff1681526020019081526020016000205413905090565b60008073ffffffffffffffffffffffffffffffffffffffff168273ffffffffffffffffffffffffffffffffffffffff161415151561024457600080fd5b8173ffffffffffffffffffffffffffffffffffffffff163373ffffffffffffffffffffffffffffffffffffffff161415151561027f57600080fd5b60016000803373ffffffffffffffffffffffffffffffffffffffff1673ffffffffffffffffffffffffffffffffffffffff16815260200190815260200160002060008473ffffffffffffffffffffffffffffffffffffffff1673ffffffffffffffffffffffffffffffffffffffff16815260200190815260200160002060006101000a81548160ff02191690831515021790555060018060008473ffffffffffffffffffffffffffffffffffffffff1673ffffffffffffffffffffffffffffffffffffffff1681526020019081526020016000206000828254019250508190555060019050919050565b60008073ffffffffffffffffffffffffffffffffffffffff168273ffffffffffffffffffffffffffffffffffffffff16141515156103a657600080fd5b8173ffffffffffffffffffffffffffffffffffffffff163373ffffffffffffffffffffffffffffffffffffffff16141515156103e157600080fd5b60008060003373ffffffffffffffffffffffffffffffffffffffff1673ffffffffffffffffffffffffffffffffffffffff16815260200190815260200160002060008473ffffffffffffffffffffffffffffffffffffffff1673ffffffffffffffffffffffffffffffffffffffff16815260200190815260200160002060006101000a81548160ff02191690831515021790555060018060008473ffffffffffffffffffffffffffffffffffffffff1673ffffffffffffffffffffffffffffffffffffffff16815260200190815260200160002060008282540392505081905550600190509190505600a165627a7a723058207f14a3bd6627eeda5546df419edd4c8c93c75d9a6094ecea84a8747f78cd39b40029",
  "source": "pragma solidity ^0.4.18;\r\n\r\ncontract PermissionManager {\r\n\r\n    mapping (address => mapping (address => bool)) private allowed;\r\n    mapping (address => int256) private userPermission;\r\n    \r\n    function grantPermissionTo(address userAddress) public returns (bool) {\r\n        require(userAddress != address(0));\r\n        require(msg.sender != userAddress);\r\n        \r\n        allowed[msg.sender][userAddress] = true;\r\n        userPermission[userAddress] += 1;\r\n    \r\n        return true;\r\n    }\r\n    \r\n    function revokePermission(address userAddress) public returns (bool) {\r\n        require(userAddress != address(0));\r\n        require(msg.sender != userAddress);\r\n        \r\n        allowed[msg.sender][userAddress] = false;\r\n        userPermission[userAddress] -= 1;\r\n    \r\n        return true;\r\n    }\r\n    \r\n    function hasPermissionFromOtherUser() public view returns (bool) {\r\n        return userPermission[msg.sender] > 0;\r\n    }\r\n    \r\n    function getPermissionsCountAssigenedByUsers() public view returns (int256) {\r\n        return userPermission[msg.sender];\r\n    } \r\n    \r\n}",
  "sourcePath": "D:/Projects/Others/Blockchain/My Demo/permission-master/contracts/PermissionManager.sol",
  "compiler": {
    "name": "solc",
    "version": "0.4.25+commit.59dbf8f1.Emscripten.clang"
  },
  "schemaVersion": "3.0.1",
  "updatedAt": "2019-01-08T11:02:05.526Z",
  "devdoc": {
    "methods": {}
  },
  "userdoc": {
    "methods": {}
  }
}